:1000000096EF02F00000000000EF00F0000000009A
:0A0010000000000000000000F3D71C
:0C001C00060E0D6E0D2EFED70000120027
:10002800FF0E896E890E8A6E890E8B6EF90E8C6EA4
:020038001200B4
:10003A008F0E896E890E8A6E890E8B6EF90E8C6E02
:02004A001200A2
:10004C00010E896E010E8A6E010E8B6EFF0E8C6E88
:02005C00120090
:10005E008F0E896E890E8A6E890E8B6EFF0E8C6ED8
:02006E0012007E
:10007000FF0E896E890E8A6E890E8B6EFF0E8C6E56
:0200800012006C
:100082000F0E896E080E8A6E080E8B6EFF0E8C6E36
:0200920012005A
:10009400FF0E896E810E8A6E810E8B6EFF0E8C6E42
:0200A400120048
:0A00A600BADF8188B8DF81981200EC
:1000B000080E896E040E8A6E020E8B6EFF0E8C6E19
:0200C00012002C
:1000C200810E896E890E8A6E890E8B6EFF0E8C6E82
:0200D20012001A
:1000D400F90E896E890E8A6E890E8B6E8F0E8C6E68
:0200E400120008
:0800E600BE6ABD98BD9A12002C
:0800EE00BB6ABA98BA9A12002D
:1000F6000B6A0A6A096A00500402F4CF09F0F3CFCA
:1001060008F001500502F4CF0BF0F3CF0AF00050CF
:100116000502F3500926F4500A22E86A0B22015020
:100126000402F3500926F4500A22E86A0B2208C09A
:1001360000F009C001F00AC002F00BC003F0120083
:0A014600896A8A6A8B6A8C6A1200CB
:0A0150009494CA840C0EBD12120034
:0E015A0081948196B80E2A10836EA0DF1200E9
:100168007F0E2A14016E01C02AF001AC03D08180F1
:0A017800819202D081908182120072
:100182007F0E2A14006E00C02AF081948196BF0E61
:10019200001600C02AF0008C00C02AF000C083FFC5
:0401A20081DF1200E7
:0E01A6008198818481962AC083FF7ADF12003F
:1001B40016D06EDF51D07ADF4FD08ADF4DD07FDF8B
:1001C4004BD05DDF49D037DF47D02CDF45D03CDF53
:1001D40043D04CDF41D041DF3FD0B3DF3DD0000EF0
:1001E4002B1802E1000E2A18E4E0000E2B1802E19D
:1001F400010E2A18E0E0000E2B1802E1020E2A1864
:10020400DCE0000E2B1802E1030E2A18D8E0000EE1
:100214002B1802E1040E2A18D4E0000E2B1802E178
:10022400050E2A18D0E0000E2B1802E1060E2A183B
:10023400CCE0000E2B1802E1070E2A18C8E0000ECD
:100244002B1802E1080E2A18C4E0000E2B1802E154
:0A025400090E2A18C0E0C1D71200FD
:10025E00FF0E806EFF0E926E816A936A826A946AB6
:10026E00CA80CA92630ECB6E37DFCA80CA92630E03
:06027E00CB6E36DF12001A
:10028400CB50010F006E016A000E01222AC004F057
:10029400000E056E2EDF060E026E00C004F001C0D3
:1002A40005F0025005E005320432059EFF0FFAD72F
:1002B400040E016E04C000F0015004E0003600900A
:1002C400FF0FFBD7300E0014036E04C000F005C00E
:1002D40001F001320032019E01320032019E00C061
:0C02E400BBFF0F0EBA160350BA12120036
:0A02F0009492CA840C0EBA12120098
:1002FA00CB50010F006E016A000E01222AC004F0E1
:10030A00000E056EF3DE060E026E00C004F001C098
:10031A0005F0025005E005320432059EFF0FFAD7B8
:10032A00040E016E04C000F0015004E00036009093
:10033A00FF0FFBD7300E0014036E04C000F005C097
:10034A0001F001320032019E01320032019E00C0EA
:0C035A00BEFF0F0EBD160350BD121200B6
:10036600226A206A216A939A93989394939693901B
:100376009392819A956A8194819681908182818AED
:100386003F0E836E8DDEC00E836E8ADE8180819283
:0E0396003F0E836E85DEC00E836E82DE120087
:1003A400276A286A296A275007083DE32A6ADADEA1
:1003B40027C02AF0D0DE2A6AE2DE266A26503F08E9
:1003C40011E328502324F66E29502420F76E000EE2
:1003D4002520F86E0900F5CF2AF0E3DE284A292A01
:1003E400262AECD7400E2A6EBDDE27C02AF0B3DEE3
:1003F400400E2A6EC4DE400E266E26507F0811E39E
:1004040028502324F66E29502420F76E000E252050
:10041400F86E0900F5CF2AF0C4DE284A292A262AD4
:08042400ECD7272AC0D7120013
:10042C000900F5CFE6FF0006FBE10106F9E1120039
:10043C0010DF236AFF0E246E010E256E000E266E51
:10044C0081DE50DF23C02AF052DF24C02AF014DFF3
:10045C002350FF0A04E12550261001E008D0235058
:10046C00000A04E12550261001E101D009D02550E5
:10047C002610010ED8A4000E256E000E266E0CD090
:10048C002550261005E0050E2326050E245E04D00B
:10049C00050E235E050E242623C02AF028DF24C077
:1004AC002AF0EADE4E0E0C6EEB0E0D6E0D2EFED704
:0804BC000C2EFCD7CDD7120075
:1004C400806A816A826A836A846A926A936A946A95
:0804D400956A0F0E966E1200EE
:1004DC00236A246A090E236E000E246E800E2418E3
:1004EC00006E800E005C02E1000E235C18E323C05A
:1004FC002AF024C02BF058DE0B0E0B6E260E0C6E61
:10050C005D0E0D6E0D2EFED70C2EFCD70B2EFAD7D2
:10051C0000000000010E235E000E245ADFD71200EB
:10052C00BBEC04F01ADF6A0E236E050E246E000E6F
:10053C00256E32DF330E0B6EBB0E0C6EDF0E0D6EA6
:10054C000D2EFED70C2EFCD70B2EFAD70000000078
:0E055C00B3DFBEDFB1DF7DDE6BDFE4D7FFD79C
:1009760010EE15F00B0E006E010E016E6A0EF66E8D
:0E098600090EF76E000EF86E16EC02F012006D
:10056A000000000000000000000000000000000081
:10057A000000000000000000000000000000000071
:10058A000000000000000000000000000000000061
:10059A000000000000000000000000000000000051
:1005AA000000000000000000000000000000000041
:1005BA000000000000000000000000000000000031
:1005CA000000000000000000000000000000000021
:1005DA000000000000000000000000000000000011
:1005EA000000000000000000000000000000000001
:1005FA0000000000000000000000000000000000F1
:10060A0000000000000000000000000000000000E0
:10061A0000000000000000000000000000000000D0
:10062A0000000000000000000000000000000000C0
:10063A0000000000000000000000000000000000B0
:10064A0000000000000000000000000000000000A0
:10065A000000000000000000000000000000000090
:10066A00FFFFFFFFFFFFFFFFFFFFFF00000000C0CB
:10067A00E0F0F8FCFCFEFEFEFFFFFFFFFFFFFFFFBE
:10068A00FEFEFE7C1C000000FFFFFFFFFFFFFFFFD6
:10069A00FFFFFF000000000080FFFFFFFFFFFFFFDA
:1006AA00FFFFFFFFFFFCC00000000000E0FCFFFFAF
:1006BA00FFFFFFFFFFFFFFFFFFFF0000000000003A
:1006CA0000000000000000E0FCFEFFFFFFFFFFFF4C
:1006DA00FFFFFFFFFFFEF8C000000000000000005F
:1006EA00FFFFFFFFFFFFFFFFFFFFFF0000007FFF8D
:1006FA00FFFFFFFFFFFFFFFFFFF9F8F0F0F0F1E166
:10070A00E3E3C38000000000FFFFFFFFFFFFFFFFDE
:10071A00FFFFFF00000000F0FFFFFFFFFFFFFFFFEA
:10072A00FFFFFFFFFFFFFFFCC000F0FFFFFFFFFF1F
:10073A00FFFFFFFFFFFFFFFFFFFFFFC000000000FA
:10074A0000000000E0F8FFFFFFFFFFFFFFFFFFFFD1
:10075A00FFFFFFFFFFFFFFFFFEF080000000000029
:10076A00FFFFFFFFFFFFFFFFFFFFFF00000000800A
:10077A00E1E3C787878F0F0F0F0F9FFFFFFFFFFF71
:10078A00FFFFFFFFFFFE0000FFFFFFFFFFFFFFFF6E
:10079A00FFFFFF000000FCFFFFFFFFFFFFFFFFFF5F
:1007AA0007010F7FFFFFFFFFFFFFFFFFFFFFFF3F75
:1007BA0007000FFFFFFFFFFFFFFFFFFFF000000032
:1007CA0000C0F0FEFFFFFFFFFFFFFFFF3F07010131
:1007DA0001033FFFFFFFFFFFFFFFFFFEF080000066
:1007EA00FFFFFFFFFFFFFFFFFFFFFF0000103E3F7D
:1007FA007F7F7F7FFFFFFFFFFFFFFFFFFF7F7F7F7F
:10080A003F3F1F0F07010000FFFFFFFFFFFFFFFF32
:10081A00FFFFFF0000FEFFFFFFFFFFFFFFFFFF7F5D
:10082A0000000000033FFFFFFFFFFFFF7F1F0300E1
:10083A000000007FFFFFFFFFFFFFFFFFFFFCC0F08C
:10084A00FEFFFFFFFFFFFFFFFFFF3F030000000067
:10085A00000000077FFFFFFFFFFFFFFFFFFFFCE035
:10086A00000000000000000000000000000000007E
:10087A00000000000000000000000000000000006E
:10088A00000000000000000000000000000000005E
:10089A00000000000000000000000000000000004E
:1008AA00000000000000000000000000000000003E
:1008BA00000000000000000000000000000000002E
:1008CA00000000000000000000000000000000001E
:1008DA00000000000000000000000000000000000E
:1008EA0000000000000000000000000000000000FE
:1008FA0000000000000000000000000000000000EE
:10090A0000000000000000000000000000000000DD
:10091A0000000000000000000000000000000000CD
:10092A0000000000000000000000000000000000BD
:10093A0000000000000000000000000000000000AD
:10094A00000000000000000000000000000000009D
:10095A00000000000000000000000000000000008D
:0B096A006D696B726F435F3132330028
:020000040030CA
:0D000100220F0EFF0181FF0FC00FE00F4026
:00000001FF
