:10000000C7EF00F00000000000EF00F0000000006B
:0A0010000000000000000000F3D71C
:0C001C00060E0D6E0D2EFED70000120027
:0A002800F9DF8188F7DF81981200EC
:100032007F0E04010615016E01C006F401AC03D067
:0C0042008180819202D0819081821200A6
:10004E007F0E04010615006E00C006F481948196A1
:10005E00BF0E001600C006F4008C00C006F400C0EF
:06006E0083FFDBDF12003E
:0E00740081988184819606C483FFD4DF120038
:1000820081948196B80E04010611836ECCDF1200B2
:10009200156A166A176A939A939893949396939013
:1000A2009392819A956A8194819681908182818AC4
:1000B2003F0E836EB8DFC00E836EB5DF8180819202
:0E00C2003F0E836EB0DFC00E836EADDF120006
:1000D0000401006B046B056B0051070845E3066BD8
:1000E000A8DF00C406F4CDDF066BB1DF0301FF6BB0
:1000F000FF513F0813E3040104510125F66E055139
:100100000221F76E000E0321F86E0900F5CF06F408
:10011000B1DF044B052B0301FF2BEAD7400E04018E
:10012000066F87DF00C406F4ACDF400E066F8FDF7A
:10013000400E0301FF6FFF517F0813E304010451D8
:100140000125F66E05510221F76E000E0321F86EAF
:100150000900F5CF06F48EDF044B052B0301FF2BBE
:0A016000EAD70401002BB8D7120003
:10016A0093DF940E0401016F010E026F000E036FFC
:04017A00AADF1200E6
:10017E000900F5CFE6FF0006FBE10106F9E11200EA
:06018E00EDDFFFD7FFD7F3
:10019400000000000000000000000000000000005B
:1001A400000000000000000000000000000000004B
:1001B400000000000000000000000000000000003B
:1001C400000000000000000000000000000000002B
:1001D400000000000000000000000000000000001B
:1001E400000000000000000000000000000000000B
:1001F40000000000000000000000000000000000FB
:1002040000000000000000000000000000000000EA
:1002140000000000000000000000000000000000DA
:1002240000000000000000000000000000000000CA
:1002340000000000000000000000000000000000BA
:1002440000000000000000000000000000000000AA
:10025400000000000000000000000000000000009A
:10026400000000000000000000000000000000008A
:10027400000000000000000000000000000000007A
:10028400000000000000000000000000000000006A
:10029400FFFFFFFFFFFFFFFFFFFFFF00000000C0A5
:1002A400E0F0F8FCFCFEFEFEFFFFFFFFFFFFFFFF98
:1002B400FEFEFE7C1C000000FFFFFFFFFFFFFFFFB0
:1002C400FFFFFF000000000080FFFFFFFFFFFFFFB4
:1002D400FFFFFFFFFFFCC00000000000E0FCFFFF89
:1002E400FFFFFFFFFFFFFFFFFFFF00000000000014
:1002F40000000000000000E0FCFEFFFFFFFFFFFF26
:10030400FFFFFFFFFFFEF8C0000000000000000038
:10031400FFFFFFFFFFFFFFFFFFFFFF0000007FFF66
:10032400FFFFFFFFFFFFFFFFFFF9F8F0F0F0F1E13F
:10033400E3E3C38000000000FFFFFFFFFFFFFFFFB8
:10034400FFFFFF00000000F0FFFFFFFFFFFFFFFFC4
:10035400FFFFFFFFFFFFFFFCC000F0FFFFFFFFFFF9
:10036400FFFFFFFFFFFFFFFFFFFFFFC000000000D4
:1003740000000000E0F8FFFFFFFFFFFFFFFFFFFFAB
:10038400FFFFFFFFFFFFFFFFFEF080000000000003
:10039400FFFFFFFFFFFFFFFFFFFFFF0000000080E4
:1003A400E1E3C787878F0F0F0F0F9FFFFFFFFFFF4B
:1003B400FFFFFFFFFFFE0000FFFFFFFFFFFFFFFF48
:1003C400FFFFFF000000FCFFFFFFFFFFFFFFFFFF39
:1003D40007010F7FFFFFFFFFFFFFFFFFFFFFFF3F4F
:1003E40007000FFFFFFFFFFFFFFFFFFFF00000000C
:1003F40000C0F0FEFFFFFFFFFFFFFFFF3F0701010B
:1004040001033FFFFFFFFFFFFFFFFFFEF08000003F
:10041400FFFFFFFFFFFFFFFFFFFFFF0000103E3F56
:100424007F7F7F7FFFFFFFFFFFFFFFFFFF7F7F7F58
:100434003F3F1F0F07010000FFFFFFFFFFFFFFFF0C
:10044400FFFFFF0000FEFFFFFFFFFFFFFFFFFF7F37
:1004540000000000033FFFFFFFFFFFFF7F1F0300BB
:100464000000007FFFFFFFFFFFFFFFFFFFFCC0F066
:10047400FEFFFFFFFFFFFFFFFFFF3F030000000041
:10048400000000077FFFFFFFFFFFFFFFFFFFFCE00F
:100494000000000000000000000000000000000058
:1004A4000000000000000000000000000000000048
:1004B4000000000000000000000000000000000038
:1004C4000000000000000000000000000000000028
:1004D4000000000000000000000000000000000018
:1004E4000000000000000000000000000000000008
:1004F40000000000000000000000000000000000F8
:1005040000000000000000000000000000000000E7
:1005140000000000000000000000000000000000D7
:1005240000000000000000000000000000000000C7
:1005340000000000000000000000000000000000B7
:1005440000000000000000000000000000000000A7
:100554000000000000000000000000000000000097
:100564000000000000000000000000000000000087
:100574000000000000000000000000000000000077
:100584000000000000000000000000000000000067
:020000040030CA
:0D000100220F0EFF0181FF0FC00FE00F4026
:00000001FF
