:100000003FEF01F00000000000EF00F000000000F2
:0A0010000000000000000000F3D71C
:08001C00BB6ABA98BA9A1200FF
:100024000B6A0A6A096A00500402F4CF09F0F3CF9C
:1000340008F001500502F4CF0BF0F3CF0AF00050A2
:100044000502F3500926F4500A22E86A0B220150F3
:100054000402F3500926F4500A22E86A0B2208C06D
:1000640000F009C001F00AC002F00BC003F0120056
:08007400BE6ABD98BD9A12009E
:0A007C009494CA840C0EBD12120009
:10008600CB50010F006E016A000E012226C004F05B
:10009600000E056EC4DF060E026E00C004F001C03D
:1000A60005F0025005E005320432059EFF0FFAD72F
:1000B600040E016E04C000F0015004E0003600900A
:1000C600FF0FFBD7300E0014036E04C000F005C00E
:1000D60001F001320032019E01320032019E00C061
:0C00E600BEFF0F0EBD160350BD1212002D
:1000F200CB50010F006E016A000E012226C004F0EF
:10010200000E056E8EDF060E026E00C004F001C006
:1001120005F0025005E005320432059EFF0FFAD7C2
:10012200040E016E04C000F0015004E0003600909D
:10013200FF0FFBD7300E0014036E04C000F005C0A1
:1001420001F001320032019E01320032019E00C0F4
:0C015200BBFF0F0EBA160350BA121200C9
:0A015E009492CA840C0EBA1212002B
:10016800FF0E806EFF0E926E816A936A826A946AAD
:10017800CA80CA92630ECB6E79DFCA80CA92630EB8
:06018800CB6E48DF1200FF
:10018E00ECDF226AFF0E236E010E246E000E256E2A
:10019E006EDFDEDF22C026F06FDF23C026F0A2DF87
:1001AE002250FF0A04E12450251001E008D022500D
:1001BE00000A04E12450251001E101D009D0245099
:1001CE002510010ED8A4000E246E000E256E0CD044
:1001DE002450251005E0050E2226050E235E04D0C0
:1001EE00050E225E050E232622C026F045DF23C013
:1001FE0026F078DF4E0E0C6EEB0E0D6E0D2EFED72A
:08020E000C2EFCD7CDD7120025
:06021600836A956A1200E4
:10021C00246A256AFF0E8C6E246A256A800E2518C6
:10022C00006E800E2318005C02E12250245C05E273
:10023C0000000000244A252AF1D78C6A22C024F041
:10024C0023C025F0800E2518006E800E005C02E1A4
:10025C00C80E245C05E200000000244A252AF2D7CF
:02026C0012007E
:10026E000900F5CFE6FF0006FBE10106F9E11200F9
:10027E007AEC01F0010E206E000E216EC5DF6DDFEF
:10028E007FDF206A216A800E2118006E800E005CCE
:10029E0002E1C80E205C08E220C022F021C023F04B
:1002AE00B6DF204A212AEFD7C80E206E000E216E2F
:1002BE00800E006E800E2118005C02E120500008B6
:1002CE000AE220C022F021C023F0A1DF010E205E41
:0A02DE00000E215AEDD7D3D7FFD749
:1002F40010EE15F00B0E006E010E016EE80EF66E98
:0E030400020EF76E000EF86E37EC01F01200DC
:0B02E8006D696B726F435F31323300B1
:020000040030CA
:0D000100220F0EFF0181FF0FC00FE00F4026
:00000001FF
