:1000000099EF01F00000000000EF00F00000000098
:0A0010000000000000000000F3D71C
:0C001C00060E0D6E0D2EFED70000120027
:10002800810E896E890E8A6E890E8B6EFF0E8C6E1C
:020038001200B4
:10003A000F0E896E080E8A6E080E8B6EFF0E8C6E7E
:02004A001200A2
:10004C00F90E896E890E8A6E890E8B6E8F0E8C6EF0
:02005C00120090
:10005E00FF0E896E810E8A6E810E8B6EFF0E8C6E78
:02006E0012007E
:10007000080E896E040E8A6E020E8B6EFF0E8C6E59
:0200800012006C
:100082008F0E896E890E8A6E890E8B6EF90E8C6EBA
:0200920012005A
:100094008F0E896E890E8A6E890E8B6EFF0E8C6EA2
:0200A400120048
:0A00A600896A8A6A8B6A8C6A12006C
:1000B000FF0E896E890E8A6E890E8B6EFF0E8C6E16
:0200C00012002C
:1000C200FF0E896E890E8A6E890E8B6EF90E8C6E0A
:0200D20012001A
:1000D400010E896E010E8A6E010E8B6EFF0E8C6E00
:0200E400120008
:0A00E6009ADF818898DF81981200EC
:1000F0007F0E1F14006E00C01FF081948196BF0E0A
:10010000001600C01FF0008C00C01FF000C083FF6D
:04011000EADF120010
:100114007F0E1F14016E01C01FF001AC03D081805B
:0A012400819202D0819081821200C6
:0E012E0081948196B80E1F10836ED6DF1200EA
:10013C0016D08FDF51D096DF4FD082DF4DD06EDFDF
:10014C004BD075DF49D097DF47D0B5DF45D0BCDF4A
:10015C0043D0A8DF41D098DF3FD09FDF3DD0000EC9
:10016C00201802E1000E1F18E4E0000E201802E136
:10017C00010E1F18E0E0000E201802E1020E1F18FD
:10018C00DCE0000E201802E1030E1F18D8E0000E70
:10019C00201802E1040E1F18D4E0000E201802E112
:1001AC00050E1F18D0E0000E201802E1060E1F18D5
:1001BC00CCE0000E201802E1070E1F18C8E0000E5C
:1001CC00201802E1080E1F18C4E0000E201802E1EE
:0A01DC00090E1F18C0E0C1D7120081
:0E01E6008198818481961FC083FF7ADF12000A
:1001F4001C6A1D6A1E6A1C5007083DE31F6A88DFDB
:100204001CC01FF092DF1F6A71DF1B6A1B503F087E
:1002140011E31D501824F66E1E501920F76E000EBF
:100224001A20F86E0900F5CF1FF0DBDF1D4A1E2AE5
:100234001B2AECD7400E1F6E6BDF1CC01FF075DF4E
:10024400400E1F6E53DF400E1B6E1B507F0811E3E0
:100254001D501824F66E1E501920F76E000E1A2039
:10026400F86E0900F5CF1FF0BCDF1D4A1E2A1B2AB9
:08027400ECD71C2AC0D71200D0
:10027C00156A166A176A939A939893949396939027
:10028C009392819A956A8194819681908182818AD8
:10029C003F0E836E22DFC00E836E1FDF8180819242
:0E02AC003F0E836E1ADFC00E836E17DF120046
:1002BA000900F5CFE6FF0006FBE10106F9E11200AD
:1002CA00806A816A826A836A846A926A936A946A91
:0802DA00956A0F0E966E1200EA
:1002E200186A196A090E186E000E196E800E191816
:1002F200006E800E005C02E1000E185C18E318C06C
:100302001FF019C020F019DF0B0E0B6E260E0C6EBB
:100312005D0E0D6E0D2EFED70C2EFCD70B2EFAD7CE
:1003220000000000010E185E000E195ADFD71200FD
:10033200A4DF680E186E030E196E000E1A6E59DFD6
:10034200330E0B6EBB0E0C6EDF0E0D6E0D2EFED736
:100352000C2EFCD70B2EFAD700000000B5DFC0DF51
:06036200B3DFE6D7FFD770
:100368000000000000000000000000000000000085
:100378000000000000000000000000000000000075
:100388000000000000000000000000000000000065
:100398000000000000000000000000000000000055
:1003A8000000000000000000000000000000000045
:1003B8000000000000000000000000000000000035
:1003C8000000000000000000000000000000000025
:1003D8000000000000000000000000000000000015
:1003E8000000000000000000000000000000000005
:1003F80000000000000000000000000000000000F5
:1004080000000000000000000000000000000000E4
:1004180000000000000000000000000000000000D4
:1004280000000000000000000000000000000000C4
:1004380000000000000000000000000000000000B4
:1004480000000000000000000000000000000000A4
:100458000000000000000000000000000000000094
:10046800FFFFFFFFFFFFFFFFFFFFFF00000000C0CF
:10047800E0F0F8FCFCFEFEFEFFFFFFFFFFFFFFFFC2
:10048800FEFEFE7C1C000000FFFFFFFFFFFFFFFFDA
:10049800FFFFFF000000000080FFFFFFFFFFFFFFDE
:1004A800FFFFFFFFFFFCC00000000000E0FCFFFFB3
:1004B800FFFFFFFFFFFFFFFFFFFF0000000000003E
:1004C80000000000000000E0FCFEFFFFFFFFFFFF50
:1004D800FFFFFFFFFFFEF8C0000000000000000063
:1004E800FFFFFFFFFFFFFFFFFFFFFF0000007FFF91
:1004F800FFFFFFFFFFFFFFFFFFF9F8F0F0F0F1E16A
:10050800E3E3C38000000000FFFFFFFFFFFFFFFFE2
:10051800FFFFFF00000000F0FFFFFFFFFFFFFFFFEE
:10052800FFFFFFFFFFFFFFFCC000F0FFFFFFFFFF23
:10053800FFFFFFFFFFFFFFFFFFFFFFC000000000FE
:1005480000000000E0F8FFFFFFFFFFFFFFFFFFFFD5
:10055800FFFFFFFFFFFFFFFFFEF08000000000002D
:10056800FFFFFFFFFFFFFFFFFFFFFF00000000800E
:10057800E1E3C787878F0F0F0F0F9FFFFFFFFFFF75
:10058800FFFFFFFFFFFE0000FFFFFFFFFFFFFFFF72
:10059800FFFFFF000000FCFFFFFFFFFFFFFFFFFF63
:1005A80007010F7FFFFFFFFFFFFFFFFFFFFFFF3F79
:1005B80007000FFFFFFFFFFFFFFFFFFFF000000036
:1005C80000C0F0FEFFFFFFFFFFFFFFFF3F07010135
:1005D80001033FFFFFFFFFFFFFFFFFFEF08000006A
:1005E800FFFFFFFFFFFFFFFFFFFFFF0000103E3F81
:1005F8007F7F7F7FFFFFFFFFFFFFFFFFFF7F7F7F83
:100608003F3F1F0F07010000FFFFFFFFFFFFFFFF36
:10061800FFFFFF0000FEFFFFFFFFFFFFFFFFFF7F61
:1006280000000000033FFFFFFFFFFFFF7F1F0300E5
:100638000000007FFFFFFFFFFFFFFFFFFFFCC0F090
:10064800FEFFFFFFFFFFFFFFFFFF3F03000000006B
:10065800000000077FFFFFFFFFFFFFFFFFFFFCE039
:100668000000000000000000000000000000000082
:100678000000000000000000000000000000000072
:100688000000000000000000000000000000000062
:100698000000000000000000000000000000000052
:1006A8000000000000000000000000000000000042
:1006B8000000000000000000000000000000000032
:1006C8000000000000000000000000000000000022
:1006D8000000000000000000000000000000000012
:1006E8000000000000000000000000000000000002
:1006F80000000000000000000000000000000000F2
:1007080000000000000000000000000000000000E1
:1007180000000000000000000000000000000000D1
:1007280000000000000000000000000000000000C1
:1007380000000000000000000000000000000000B1
:1007480000000000000000000000000000000000A1
:100758000000000000000000000000000000000091
:020000040030CA
:0D000100220F0EFF0181FF0FC00FE00F4026
:00000001FF
