:1000000027EF01F00000000000EF00F0000000000A
:0A0010000000000000000000F3D71C
:10001C009F0E806E910E816E910E826EF10E836E2C
:02002C001200C0
:10002E00080E806E040E816E020E826EFF0E836EBF
:02003E001200AE
:10004000810E806E910E816E910E826EFF0E836E18
:0200500012009C
:10005200FF0E806E910E816E910E826EF10E836E96
:0200620012008A
:100064009F0E806E910E816E910E826EFF0E836ED6
:02007400120078
:10007600FF0E806E910E816E910E826EFF0E836E64
:02008600120066
:10008800010E806E010E816E010E826EFF0E836E70
:02009800120054
:0A009A00806A816A826A836A12009C
:1000A400FF0E806E810E816E810E826EFF0E836E56
:0200B400120038
:1000B600F10E806E910E816E910E826E9F0E836E92
:0200C600120026
:1000C8001F0E806E100E816E100E826EFF0E836EF4
:0200D800120014
:1000DA00156A166A156A166A800E1618006E800E60
:1000EA00005C02E10A0E155CD8B0A3D0D6DF0B0E75
:1000FA000B6E260E0C6E5D0E0D6E0D2EFED70C2E9F
:10010A00FCD70B2EFAD700000000C2DF8BDF0B0EE4
:10011A000B6E260E0C6E5D0E0D6E0D2EFED70C2E7E
:10012A00FCD70B2EFAD700000000B2DFBFDF0B0EA0
:10013A000B6E260E0C6E5D0E0D6E0D2EFED70C2E5E
:10014A00FCD70B2EFAD700000000A2DF74DF0B0EDB
:10015A000B6E260E0C6E5D0E0D6E0D2EFED70C2E3E
:10016A00FCD70B2EFAD70000000092DFA8DF0B0E97
:10017A000B6E260E0C6E5D0E0D6E0D2EFED70C2E1E
:10018A00FCD70B2EFAD70000000082DF42DF0B0EED
:10019A000B6E260E0C6E5D0E0D6E0D2EFED70C2EFE
:1001AA00FCD70B2EFAD70000000072DF4DDF0B0ED2
:1001BA000B6E260E0C6E5D0E0D6E0D2EFED70C2EDE
:1001CA00FCD70B2EFAD70000000062DF58DF0B0EB7
:1001DA000B6E260E0C6E5D0E0D6E0D2EFED70C2EBE
:1001EA00FCD70B2EFAD70000000052DF3FDF0B0EC0
:1001FA000B6E260E0C6E5D0E0D6E0D2EFED70C2E9E
:10020A00FCD70B2EFAD70000000042DF26DF0B0EC8
:10021A000B6E260E0C6E5D0E0D6E0D2EFED70C2E7D
:10022A00FCD70B2EFAD70000000032DF154A162A37
:04023A0053D7120084
:10023E000900F5CFE6FF0006FBE10106F9E1120029
:10024E00806A816A826A836A846A926A936A946A0D
:08025E00956A3CDFFED7FFD7D3
:020000040030CA
:0D000100220F0EFF0181FF0FC00FE00F4026
:00000001FF
