:10000000ECEF02F00000000000EF00F00000000044
:0A0010000000000000000000F3D71C
:10001C000F0E0C6E470E0D6E0D2EFED70C2EFCD750
:06002C00000000001200BC
:06003200000000001200B6
:0A003800210E0D6E0D2EFED71200F2
:1000420051BE02D0819601D0818651BC02D08194EA
:1000520001D0818451BA02D0819201D0818251B8FB
:1000620002D0819001D0818041B002D0818801D03C
:100072008198818ADDDF819A51B602D0819601D0C2
:10008200818651B402D0819401D0818451B202D0D0
:10009200819201D0818251B002D0819001D08180C1
:1000A20041B002D0818801D08198818AC1DF819AD2
:0C00B20041A002D0B2DF01D0BEDF12007E
:0C00BE00060E0D6E0D2EFED70000120085
:0A00CA00F9DF8188F7DF819812004A
:1000D400010E896E010E8A6E010E8B6EFF0E8C6E00
:0200E400120008
:1000E600080E896E040E8A6E020E8B6EFF0E8C6EE3
:0200F6001200F6
:1000F800FF0E896E890E8A6E890E8B6EFF0E8C6ECE
:020108001200E3
:10010A00FF0E896E810E8A6E810E8B6EFF0E8C6ECB
:02011A001200D1
:10011C000F0E896E080E8A6E080E8B6EFF0E8C6E9B
:02012C001200BF
:10012E008F0E896E890E8A6E890E8B6EFF0E8C6E07
:02013E001200AD
:10014000FF0E896E890E8A6E890E8B6EF90E8C6E8B
:0201500012009B
:0A015200896A8A6A8B6A8C6A1200BF
:10015C00810E896E890E8A6E890E8B6EFF0E8C6EE7
:02016C0012007F
:10016E008F0E896E890E8A6E890E8B6EF90E8C6ECD
:02017E0012006D
:10018000F90E896E890E8A6E890E8B6E8F0E8C6EBB
:0201900012005B
:0C019200419050C051F054DF4180120039
:10019E00060E0B6E130E0C6EAD0E0D6E0D2EFED7E3
:0E01AE000C2EFCD70B2EFAD70000000012001A
:1001BC00939A93989390939293949396819A81980F
:1001CC00819681948192819023DF22DF21DF8182CD
:1001DC008180818A28DF819A1BDF818A24DF819AC2
:1001EC0017DF818A20DF819A13DF8190818A1BDFE0
:1001FC00819A0EDF818A17DF819A81928186818AAA
:10020C0012DF819A05DF81968180818A0CDF819AC9
:10021C008190818A08DF819AFBDE818A04DF819AD2
:10022C008180818A00DF819AF3DE8190818AFBDEF6
:10023C00819A8186818481828180818AF4DE819A8F
:06024C00E7DE4180120014
:100252000FD0800E4B6E19D0C00E4B6E16D0940E7E
:100262004B6E13D0D40E4B6E10D0800E4B6E0DD051
:100272004B50010AEEE04B50020AEEE04B50030AEB
:10028200EEE04B50040AEEE0F0D74C04006E4B5007
:10029200002600C04BF000C051F0D2DE41904F6A00
:1002A2004F504D24E96E000E4E20EA6EEE520BE0E6
:1002B2004F504D24E96E000E4E20EA6EEECF50F004
:0A02C20067DF4F2AEDD741801200DC
:1002CC007F0E4B14006E00C04BF081948196BF0ED4
:1002DC00001600C04BF0008C00C04BF000C083FF38
:0402EC00EEDE120030
:0E02F0008198818481964BC083FFE7DE120067
:1002FE0016D004DF51D0F0DE4FD03BDF4DD027DFDC
:10030E004BD005DF49D02CDF47D013DF45D0DBDEE5
:10031E0043D0EBDE41D004DF3FD014DF3DD0000EE2
:10032E004C1802E1000E4B18E4E0000E4C1802E1EE
:10033E00010E4B18E0E0000E4C1802E1020E4B18B5
:10034E00DCE0000E4C1802E1030E4B18D8E0000E54
:10035E004C1802E1040E4B18D4E0000E4C1802E1CA
:10036E00050E4B18D0E0000E4C1802E1060E4B188D
:10037E00CCE0000E4C1802E1070E4B18C8E0000E40
:10038E004C1802E1080E4B18C4E0000E4C1802E1A6
:0A039E00090E4B18C0E0C1D7120091
:0E03A80081948196B80E4B10836E8BDE12008E
:1003B6007F0E4B14016E01C04BF001AC03D081805F
:0A03C600819202D081908182120022
:1003D000F5DE010E516E35DE010E4B6E060E4C6ED3
:1003E0002F0E4D6E000E4E6E34DF020E4B6E060E5B
:1003F0004C6E370E4D6E000E4E6E2BDF150E0B6ED3
:100400004B0E0C6EBE0E0D6E0D2EFED70C2EFCD7B5
:100410000B2EFAD70000010E516E13DE010E4B6E4B
:10042000010E4C6E150E4D6E000E4E6E12DF020E5A
:100430004B6E050E4C6E260E4D6E000E4E6E09DF95
:10044000150E0B6E4B0E0C6EBE0E0D6E0D2EFED7E6
:100450000C2EFCD70B2EFAD70000426A040E425C29
:1004600006E21C0E516EEDDD9ADE422AF7D7426A93
:10047000080E425C06E2180E516EE3DD90DE422A61
:10048000F7D7426A080E425C06E21C0E516ED9DDB7
:0A04900086DE422AF7D7EBD71200F0
:10049A000900F5CFE6FF0006FBE10106F9E11200CB
:1004AA00446A456A090E446E000E456E800E451870
:1004BA00006E800E005C02E1000E445C18E344C04A
:1004CA004BF045C04CF016DF0B0E0B6E260E0C6E71
:1004DA005D0E0D6E0D2EFED70C2EFCD70B2EFAD705
:1004EA0000000000010E445E000E455ADFD71200DC
:1004FA00486A496A4A6A485007083DE34B6A56DF28
:10050A0048C04BF04CDF4B6ADCDE476A47503F0875
:10051A0011E349504424F66E4A504520F76E000E06
:10052A004620F86E0900F5CF4BF0DDDE494A4A2A2B
:10053A00472AECD7400E4B6E39DF48C04BF02FDF0D
:10054A00400E4B6EBEDE400E476E47507F0811E3E9
:10055A0049504424F66E4A504520F76E000E462054
:10056A00F86E0900F5CF4BF0BEDE494A4A2A472AFF
:08057A00ECD7482AC0D712009B
:10058200436A3F6A406A939A93989394939693909E
:100592009392819A956A8194819681908182818ACF
:1005A2003F0E836E91DDC00E836E8EDD818081925F
:0E05B2003F0E836E89DDC00E836E86DD120063
:1005C000806A816A826A836A846A926A936A946A98
:0805D000956A0F0E966E1200F1
:1005D8001FEC05F0F9DED1DF140E446E060E456EF1
:1005E800000E466E86DF330E0B6EBB0E0C6EDF0EF2
:1005F8000D6E0D2EFED70C2EFCD70B2EFAD7000051
:0C0608000000DADF4EDFD8DFE6D7FFD7B6
:100A3E0010EE15F02A0E006E010E016E140EF66EFB
:0E0A4E000A0EF76E000EF86E4DEC02F012006C
:1006140000000000000000000000000000000000D6
:1006240000000000000000000000000000000000C6
:1006340000000000000000000000000000000000B6
:1006440000000000000000000000000000000000A6
:100654000000000000000000000000000000000096
:100664000000000000000000000000000000000086
:100674000000000000000000000000000000000076
:100684000000000000000000000000000000000066
:100694000000000000000000000000000000000056
:1006A4000000000000000000000000000000000046
:1006B4000000000000000000000000000000000036
:1006C4000000000000000000000000000000000026
:1006D4000000000000000000000000000000000016
:1006E4000000000000000000000000000000000006
:1006F40000000000000000000000000000000000F6
:1007040000000000000000000000000000000000E5
:10071400FFFFFFFFFFFFFFFFFFFFFF00000000C020
:10072400E0F0F8FCFCFEFEFEFFFFFFFFFFFFFFFF13
:10073400FEFEFE7C1C000000FFFFFFFFFFFFFFFF2B
:10074400FFFFFF000000000080FFFFFFFFFFFFFF2F
:10075400FFFFFFFFFFFCC00000000000E0FCFFFF04
:10076400FFFFFFFFFFFFFFFFFFFF0000000000008F
:1007740000000000000000E0FCFEFFFFFFFFFFFFA1
:10078400FFFFFFFFFFFEF8C00000000000000000B4
:10079400FFFFFFFFFFFFFFFFFFFFFF0000007FFFE2
:1007A400FFFFFFFFFFFFFFFFFFF9F8F0F0F0F1E1BB
:1007B400E3E3C38000000000FFFFFFFFFFFFFFFF34
:1007C400FFFFFF00000000F0FFFFFFFFFFFFFFFF40
:1007D400FFFFFFFFFFFFFFFCC000F0FFFFFFFFFF75
:1007E400FFFFFFFFFFFFFFFFFFFFFFC00000000050
:1007F40000000000E0F8FFFFFFFFFFFFFFFFFFFF27
:10080400FFFFFFFFFFFFFFFFFEF08000000000007E
:10081400FFFFFFFFFFFFFFFFFFFFFF00000000805F
:10082400E1E3C787878F0F0F0F0F9FFFFFFFFFFFC6
:10083400FFFFFFFFFFFE0000FFFFFFFFFFFFFFFFC3
:10084400FFFFFF000000FCFFFFFFFFFFFFFFFFFFB4
:1008540007010F7FFFFFFFFFFFFFFFFFFFFFFF3FCA
:1008640007000FFFFFFFFFFFFFFFFFFFF000000087
:1008740000C0F0FEFFFFFFFFFFFFFFFF3F07010186
:1008840001033FFFFFFFFFFFFFFFFFFEF0800000BB
:10089400FFFFFFFFFFFFFFFFFFFFFF0000103E3FD2
:1008A4007F7F7F7FFFFFFFFFFFFFFFFFFF7F7F7FD4
:1008B4003F3F1F0F07010000FFFFFFFFFFFFFFFF88
:1008C400FFFFFF0000FEFFFFFFFFFFFFFFFFFF7FB3
:1008D40000000000033FFFFFFFFFFFFF7F1F030037
:1008E4000000007FFFFFFFFFFFFFFFFFFFFCC0F0E2
:1008F400FEFFFFFFFFFFFFFFFFFF3F0300000000BD
:10090400000000077FFFFFFFFFFFFFFFFFFFFCE08A
:1009140000000000000000000000000000000000D3
:1009240000000000000000000000000000000000C3
:1009340000000000000000000000000000000000B3
:1009440000000000000000000000000000000000A3
:100954000000000000000000000000000000000093
:100964000000000000000000000000000000000083
:100974000000000000000000000000000000000073
:100984000000000000000000000000000000000063
:100994000000000000000000000000000000000053
:1009A4000000000000000000000000000000000043
:1009B4000000000000000000000000000000000033
:1009C4000000000000000000000000000000000023
:1009D4000000000000000000000000000000000013
:1009E4000000000000000000000000000000000003
:1009F40000000000000000000000000000000000F3
:100A040000000000000000000000000000000000E2
:100A14006D696B726F456C656B74726F6E696B6137
:010A240000D1
:090A250045617379504943360024
:080A2E004C636434626974003A
:080A36006578616D706C6500CC
:020000040030CA
:0D000100220F0EFF0181FF0FC00FE00F4026
:00000001FF
