:10000000A3EF03F00000000000EF00F0000000008C
:0A0010000000000000000000F3D71C
:0C001C00060E0D6E0D2EFED70000120027
:10002800FF0E896E890E8A6E890E8B6EF90E8C6EA4
:020038001200B4
:10003A008F0E896E890E8A6E890E8B6EF90E8C6E02
:02004A001200A2
:10004C00010E896E010E8A6E010E8B6EFF0E8C6E88
:02005C00120090
:10005E008F0E896E890E8A6E890E8B6EFF0E8C6ED8
:02006E0012007E
:10007000FF0E896E890E8A6E890E8B6EFF0E8C6E56
:0200800012006C
:10008200080E896E040E8A6E020E8B6EFF0E8C6E47
:0200920012005A
:10009400FF0E896E810E8A6E810E8B6EFF0E8C6E42
:0200A400120048
:1000A600F90E896E890E8A6E890E8B6E8F0E8C6E96
:0200B600120036
:1000B8000F0E896E080E8A6E080E8B6EFF0E8C6E00
:0200C800120024
:1000CA00810E896E890E8A6E890E8B6EFF0E8C6E7A
:0200DA00120012
:0A00DC009494CA840C0EBD121200A9
:0800E600BB6ABA98BA9A120035
:1000EE000B6A0A6A096A00500402F4CF09F0F3CFD2
:1000FE0008F001500502F4CF0BF0F3CF0AF00050D8
:10010E000502F3500926F4500A22E86A0B22015028
:10011E000402F3500926F4500A22E86A0B2208C0A2
:10012E0000F009C001F00AC002F00BC003F012008B
:0A013E009492CA840C0EBA1212004B
:0A01480069DF818867DF81981200EB
:0A015200896A8A6A8B6A8C6A1200BF
:08015C00BE6ABD98BD9A1200B5
:100164000134083609360450085E0550D8A0053C11
:10017400095E003601360F0E0C6E0134083609365E
:10018400045000A006D0085E0550D8A0053C095EC6
:1001940005D008260550D8B0053C0926003601369E
:1001A4000C2EEBD700B006D0045008260550D8B06A
:0801B400053C092600001200C1
:1001BC00FF0E806EFF0E926E816A936A826A946A59
:1001CC00CA80CA92630ECB6EC3DFCA80CA92630E1A
:0A01DC00CB6E83DF7DDFADDF120084
:1001E600CB50010F006E016A000E012235C004F0EB
:1001F600000E056E79DF060E026E00C004F001C027
:1002060005F0025005E005320432059EFF0FFAD7CD
:10021600040E016E04C000F0015004E000360090A8
:10022600FF0FFBD7300E0014036E04C000F005C0AC
:1002360001F001320032019E01320032019E00C0FF
:0C024600BEFF0F0EBD160350BD121200CB
:100252007F0E3514006E00C035F081948196BF0E7A
:10026200001600C035F0008C00C035F000C083FFDE
:040272006ADF12002D
:100276007F0E3514016E01C035F001AC03D08180CC
:0A028600819202D081908182120063
:0E02900081948196B80E3510836E56DF1200F1
:10029E00020E0C6E490E0D6E0D2EFED70C2EFCD7D7
:0602AE0000000000120038
:1002B40016D0EEDE51D0E3DE4FD0F3DE4DD003DFB7
:1002C4004BD0F8DE49D0B7DE47D0ACDE45D0BCDE3B
:1002D40043D0CCDE41D0C1DE3FD039DF3DD0000E6B
:1002E400361802E1000E3518E4E0000E361802E17B
:1002F400010E3518E0E0000E361802E1020E351842
:10030400DCE0000E361802E1030E3518D8E0000ECA
:10031400361802E1040E3518D4E0000E361802E156
:10032400050E3518D0E0000E361802E1060E351819
:10033400CCE0000E361802E1070E3518C8E0000EB6
:10034400361802E1080E3518C4E0000E361802E132
:0A035400090E3518C0E0C1D71200F1
:10035E00CB50010F006E016A000E012235C004F071
:10036E00000E056EBDDE060E026E00C004F001C06A
:10037E0005F0025005E005320432059EFF0FFAD754
:10038E00040E016E04C000F0015004E0003600902F
:10039E00FF0FFBD7300E0014036E04C000F005C033
:1003AE0001F001320032019E01320032019E00C086
:0C03BE00BBFF0F0EBA160350BA1212005B
:0E03CA0081988184819635C083FFB9DE1200D0
:0603D800836A956A120021
:1003DE00326A336A2E508C12326A336A800E3318A8
:1003EE00006E800E3118005C02E13050325C05E286
:1003FE0000000000324A332AF1D72E502F10010E82
:10040E00D8A4000E006E00508C1630C032F031C0F1
:10041E0033F0800E3318006E800E005C02E1C80EC1
:10042E00325C05E200000000324A332AF2D7120095
:10043E00BEDE2E6AFF0E2F6E010E306E000E316E76
:10044E00356ACADE2FC035F083DF2E50FF0A04E175
:10045E003050311001E008D02E50000A04E1305027
:10046E00311001E101D009D030503110010ED8A465
:10047E00000E306E000E316E0CD03050311005E093
:10048E00050E2E26050E2F5E04D0050E2E5E050ED1
:10049E002F262EC035F0A0DE2FC035F059DF4E0EC0
:1004AE000C6EEB0E0D6E0D2EFED70C2EFCD7CDD78F
:0204BE0012002A
:1004C000346A30C001F0010E006E015004E00036C5
:1004D0000090FF0FFBD700C033F02EC0E9FF2FC004
:1004E000EAFF0050EE14016E0152010ED8A4000E76
:1004F000006E3250001A18E03150000804E2CFDEDE
:10050000CEDE3106F9D72EC0E9FF2FC0EAFF335007
:10051000EE14016E0152010ED8A4000E006E32508E
:0E052000001A02E0FF0E346E34C000F012002C
:10052E000450000A08E10550000A05E1FF0E006EB6
:10053E007F0E016E57D00D6A096A086A01500010CD
:10054E00D8B4000C015005180A6E0ABE0D1E0B6AB7
:10055E0005AE05D0041E051E042AD8B4052A01AE28
:10056E0005D0001E011E002AD8B4012A0150051024
:10057E000A6E0ABE10D0EFDD0BB020D00DAE000C0F
:10058E00001E011E002AD8B4012A081E091E082AC0
:10059E00D8B4092A000C05AE0DD001BE07D001500B
:1005AE00096E0050086E016A006AE8D7016A006A97
:1005BE00002A000C011E001E0B2ADDD7082AD8B413
:1005CE00092A0450085CD8A4D9D70550095CD8A4D0
:1005DE00D5D7096A086A002AD8B4012A01AECED747
:0605EE000000FF0C1200EA
:1005F4000900F5CFE6FF0006FBE10106F9E1120070
:100604002E6A2F6A090E2E6E000E2F6E800E2F1882
:10061400006E800E005C02E1000E2E5C18E32EC01A
:1006240035F02FC036F044DE0B0E0B6E260E0C6E2A
:100634005D0E0D6E0D2EFED70C2EFCD70B2EFAD7A9
:1006440000000000010E2E5E000E2F5ADFD71200AC
:10065400806A816A826A836A846A926A936A946A03
:08066400956A0F0E966E12005C
:10066C00326A336A346A325007083DE3356AFDDD7D
:10067C0032C035F007DE356AE6DD316A31503F08AD
:10068C0011E333502E24F66E34502F20F76E000EEB
:10069C003020F86E0900F5CF35F091DE334A342A5C
:1006AC00312AECD7400E356EE0DD32C035F0EADD94
:1006BC00400E356EC8DD400E316E31507F0811E3AF
:1006CC0033502E24F66E34502F20F76E000E30204F
:1006DC00F86E0900F5CF35F072DE334A342A312A30
:0806EC00ECD7322AC0D712003E
:0A06F4009484CA94F00EBD161200A3
:0A06FE009482CA94F00EBA1612009E
:10070800226A236A246A939A93989394939693906F
:100718009392819A956A8194819681908182818A47
:100728003F0E836E0DDDC00E836E0ADD81808192DF
:0E0738003F0E836E05DDC00E836E02DD1200E3
:10074600E3EC07F0010E266E000E276E010E286EF2
:10075600000E296E020E2A6E000E2B6E2C6A2D6A72
:10076600C26AC16A93809682938493862590259265
:1007760025942596810E2E6E0F0E2F6E306A010E71
:10078600316E010E326E99DE0052D8A4258025A066
:1007960021D0810E2E6E0F0E2F6E306A010E316E35
:1007A600326A8BDE005216E02590040E2C6E000E87
:1007B6002D6E20C004F021C005F0040E006E000E60
:1007C600016EB2DE08C000F009C001F000C02CF0D6
:1007D60001C02DF0810E2E6E0F0E2F6E010E306EA3
:1007E600010E316E010E326E68DE0052D8A42582EB
:1007F60025A222D0810E2E6E0F0E2F6E010E306EA8
:10080600010E316E326A59DE005216E02592060E4E
:100816002C6E000E2D6E20C004F021C005F0060ED1
:10082600006E000E016E80DE08C000F009C001F007
:1008360000C02CF001C02DF0810E2E6E0F0E2F6E13
:10084600020E306E010E316E010E326E36DE005231
:10085600D8A4258425A422D0810E2E6E0F0E2F6ECD
:10086600020E306E010E316E326A27DE005216E03D
:100876002594080E2C6E000E2D6E20C004F021C0AB
:1008860005F0080E006E000E016E4EDE08C000F088
:1008960009C001F000C02CF001C02DF0810E2E6EB3
:1008A6000F0E2F6E030E306E010E316E010E326E7C
:1008B60004DE0052D8A4258625A622D0810E2E6EEF
:1008C6000F0E2F6E030E306E010E316E326AF5DD9D
:1008D600005216E02596010E2C6E000E2D6E20C0DD
:1008E60004F021C005F0010E006E000E016E1CDE44
:1008F60008C000F009C001F000C02CF001C02DF0C6
:10090600000E2D1802E1010E2C1822E1010E266EB2
:10091600000E276E010E286E000E296E020E2A6E3C
:10092600000E2B6E48DC55DD2C4A2D2A20C004F023
:1009360021C005F02CC000F02DC001F0F5DD08C087
:1009460000F009C001F000C02CF001C02DF02FD13D
:10095600000E2D1802E1020E2C18D8A49DD0356A7F
:10096600FBDC266A276AC80E006E000E016E2AC0DE
:1009760004F02BC005F077EC00F0800E2718026E0D
:10098600800E0118025C02E10050265C21E22AC0BA
:1009960004F02BC005F026C000F027C001F0C4DD2E
:1009A60000C035F01DDC28C02EF029C02FF02AC06B
:1009B60004F02BC005F026C000F027C001F0B4DD1E
:1009C60000C030F001C031F007DD264A272ACBD718
:1009D600356A06DCC80E006E000E016E2AC004F0F1
:1009E6002BC005F077EC00F000C026F001C027F020
:1009F600800E006E800E2718005C02E1265000086B
:100A060023E22AC004F02BC005F026C000F027C060
:100A160001F08ADD00C035F09FDC28C02EF029C029
:100A26002FF02AC004F02BC005F026C000F027C026
:100A360001F07ADD00C030F001C031F0CDDC010EEE
:100A4600265E000E275AD4D728C000F029C001F030
:100A5600003600900136010E0024026E000E0120C1
:100A6600036E02C028F003C029F0800E006E800ECF
:100A76000318005C02E10250FF0805E2010E006E59
:100A8600000E016E04D028C000F029C001F000C09D
:100A960028F001C029F08BD0000E2D1802E1030EBC
:100AA6002C1816E124DE28DE2C4A2D2A20C004F05C
:100AB60021C005F02CC000F02DC001F035DD08C0C6
:100AC60000F009C001F000C02CF001C02DF06FD07D
:100AD600000E2D1802E1040E2C1815E112DE2C4A28
:100AE6002D2A20C004F021C005F02CC000F02DC036
:100AF60001F01ADD08C000F009C001F000C02CF0BA
:100B060001C02DF054D0000E2D1802E1050E2C1850
:100B160008E1B80E2E6E0B0E2F6E000E306EA3DDA2
:100B260046D0000E2D1802E1060E2C1815E18FDDB9
:100B36002C4A2D2A20C004F021C005F02CC000F05C
:100B46002DC001F0F1DC08C000F009C001F000C0C2
:100B56002CF001C02DF02BD0000E2D1802E1070E4F
:100B66002C1802E14CDD23D0000E2D1802E1080EF0
:100B76002C1816E1DEEC00F02C4A2D2A20C004F0D9
:100B860021C005F02CC000F02DC001F0CDDC08C05E
:100B960000F009C001F000C02CF001C02DF007D014
:100BA600000E2D1802E1090E2C1801E145DCE2D5F4
:020BB600FFD767
:100FC60010EE15F00D0E006E010E016EB80EF66EE7
:0E0FD6000F0EF76E000EF86EFAEC02F012002D
:100BB800000000000000000000000000000000002D
:100BC800000000000000000000000000000000001D
:100BD800000000000000000000000000000000000D
:100BE80000000000000000000000000000000000FD
:100BF80000000000000000000000000000000000ED
:100C080000000000000000000000000000000000DC
:100C180000000000000000000000000000000000CC
:100C280000000000000000000000000000000000BC
:100C380000000000000000000000000000000000AC
:100C4800000000000000000000000000000000009C
:100C5800000000000000000000000000000000008C
:100C6800000000000000000000000000000000007C
:100C7800000000000000000000000000000000006C
:100C8800000000000000000000000000000000005C
:100C9800000000000000000000000000000000004C
:100CA800000000000000000000000000000000003C
:100CB800FFFFFFFFFFFFFFFFFFFFFF00000000C077
:100CC800E0F0F8FCFCFEFEFEFFFFFFFFFFFFFFFF6A
:100CD800FEFEFE7C1C000000FFFFFFFFFFFFFFFF82
:100CE800FFFFFF000000000080FFFFFFFFFFFFFF86
:100CF800FFFFFFFFFFFCC00000000000E0FCFFFF5B
:100D0800FFFFFFFFFFFFFFFFFFFF000000000000E5
:100D180000000000000000E0FCFEFFFFFFFFFFFFF7
:100D2800FFFFFFFFFFFEF8C000000000000000000A
:100D3800FFFFFFFFFFFFFFFFFFFFFF0000007FFF38
:100D4800FFFFFFFFFFFFFFFFFFF9F8F0F0F0F1E111
:100D5800E3E3C38000000000FFFFFFFFFFFFFFFF8A
:100D6800FFFFFF00000000F0FFFFFFFFFFFFFFFF96
:100D7800FFFFFFFFFFFFFFFCC000F0FFFFFFFFFFCB
:100D8800FFFFFFFFFFFFFFFFFFFFFFC000000000A6
:100D980000000000E0F8FFFFFFFFFFFFFFFFFFFF7D
:100DA800FFFFFFFFFFFFFFFFFEF0800000000000D5
:100DB800FFFFFFFFFFFFFFFFFFFFFF0000000080B6
:100DC800E1E3C787878F0F0F0F0F9FFFFFFFFFFF1D
:100DD800FFFFFFFFFFFE0000FFFFFFFFFFFFFFFF1A
:100DE800FFFFFF000000FCFFFFFFFFFFFFFFFFFF0B
:100DF80007010F7FFFFFFFFFFFFFFFFFFFFFFF3F21
:100E080007000FFFFFFFFFFFFFFFFFFFF0000000DD
:100E180000C0F0FEFFFFFFFFFFFFFFFF3F070101DC
:100E280001033FFFFFFFFFFFFFFFFFFEF080000011
:100E3800FFFFFFFFFFFFFFFFFFFFFF0000103E3F28
:100E48007F7F7F7FFFFFFFFFFFFFFFFFFF7F7F7F2A
:100E58003F3F1F0F07010000FFFFFFFFFFFFFFFFDE
:100E6800FFFFFF0000FEFFFFFFFFFFFFFFFFFF7F09
:100E780000000000033FFFFFFFFFFFFF7F1F03008D
:100E88000000007FFFFFFFFFFFFFFFFFFFFCC0F038
:100E9800FEFFFFFFFFFFFFFFFFFF3F030000000013
:100EA800000000077FFFFFFFFFFFFFFFFFFFFCE0E1
:100EB800000000000000000000000000000000002A
:100EC800000000000000000000000000000000001A
:100ED800000000000000000000000000000000000A
:100EE80000000000000000000000000000000000FA
:100EF80000000000000000000000000000000000EA
:100F080000000000000000000000000000000000D9
:100F180000000000000000000000000000000000C9
:100F280000000000000000000000000000000000B9
:100F380000000000000000000000000000000000A9
:100F48000000000000000000000000000000000099
:100F58000000000000000000000000000000000089
:100F68000000000000000000000000000000000079
:100F78000000000000000000000000000000000069
:100F88000000000000000000000000000000000059
:100F98000000000000000000000000000000000049
:100FA8000000000000000000000000000000000039
:0B0FB8006D696B726F435F31323300D4
:020FC3000A0022
:020000040030CA
:0D000100220F0EFF0181FF0FC00FE00F4026
:00000001FF
