:1000000099EF01F00000000000EF00F00000000098
:0A0010000000000000000000F3D71C
:0C001C00060E0D6E0D2EFED70000120027
:10002800810E896E890E8A6E890E8B6EFF0E8C6E1C
:020038001200B4
:10003A000F0E896E080E8A6E080E8B6EFF0E8C6E7E
:02004A001200A2
:10004C00F90E896E890E8A6E890E8B6E8F0E8C6EF0
:02005C00120090
:10005E00FF0E896E810E8A6E810E8B6EFF0E8C6E78
:02006E0012007E
:10007000080E896E040E8A6E020E8B6EFF0E8C6E59
:0200800012006C
:10008200FF0E896E890E8A6E890E8B6EFF0E8C6E44
:0200920012005A
:100094008F0E896E890E8A6E890E8B6EFF0E8C6EA2
:0200A400120048
:0A00A600896A8A6A8B6A8C6A12006C
:1000B0008F0E896E890E8A6E890E8B6EF90E8C6E8C
:0200C00012002C
:1000C200FF0E896E890E8A6E890E8B6EF90E8C6E0A
:0200D20012001A
:1000D400010E896E010E8A6E010E8B6EFF0E8C6E00
:0200E400120008
:0A00E6009ADF818898DF81981200EC
:1000F0007F0E2A14006E00C02AF081948196BF0EF4
:10010000001600C02AF0008C00C02AF000C083FF57
:04011000EADF120010
:0E01140081948196B80E2A10836EE3DF1200EC
:100122007F0E2A14016E01C02AF001AC03D0818037
:0A013200819202D0819081821200B8
:0E013C008198818481962AC083FFCFDF120054
:10014A0016D088DF51D08FDF4FD07BDF4DD067DFED
:10015A004BD06EDF49D0A7DF47D0AEDF45D0B5DF41
:10016A0043D08ADF41D091DF3FD098DF3DD0000EE7
:10017A002B1802E1000E2A18E4E0000E2B1802E107
:10018A00010E2A18E0E0000E2B1802E1020E2A18CE
:10019A00DCE0000E2B1802E1030E2A18D8E0000E4C
:1001AA002B1802E1040E2A18D4E0000E2B1802E1E3
:1001BA00050E2A18D0E0000E2B1802E1060E2A18A6
:1001CA00CCE0000E2B1802E1070E2A18C8E0000E38
:1001DA002B1802E1080E2A18C4E0000E2B1802E1BF
:0A01EA00090E2A18C0E0C1D7120068
:1001F400276A286A296A275007083DE32A6A8FDF9D
:1002040027C02AF085DF2A6A71DF266A26503F0854
:1002140011E328502324F66E29502420F76E000E93
:100224002520F86E0900F5CF2AF086DF284A292A0E
:10023400262AECD7400E2A6E72DF27C02AF068DF28
:10024400400E2A6E53DF400E266E26507F0811E3BF
:1002540028502324F66E29502420F76E000E252002
:10026400F86E0900F5CF2AF067DF284A292A262AE2
:08027400ECD7272AC0D71200C5
:10027C00226A206A216A939A939893949396939006
:10028C009392819A956A8194819681908182818AD8
:10029C003F0E836E22DFC00E836E1FDF8180819242
:0E02AC003F0E836E1ADFC00E836E17DF120046
:1002BA00806A816A826A836A846A926A936A946AA1
:0802CA00956A0F0E966E1200FA
:1002D2000900F5CFE6FF0006FBE10106F9E1120095
:1002E200236A246A090E236E000E246E800E2418DF
:1002F200006E800E005C02E1000E235C18E323C056
:100302002AF024C02BF020DF0B0E0B6E260E0C6E93
:100312005D0E0D6E0D2EFED70C2EFCD70B2EFAD7CE
:1003220000000000010E235E000E245ADFD71200E7
:10033200BCEC03F0A2DF6C0E236E030E246E000EE3
:10034200256E57DF330E0B6EBB0E0C6EDF0E0D6E7D
:100352000D2EFED70C2EFCD70B2EFAD70000000074
:0A036200ABDFBEDFA9DFE6D7FFD74F
:1007780010EE15F00B0E006E010E016E6C0EF66E8B
:0E078800070EF76E000EF86E69EC01F012001D
:10036C000000000000000000000000000000000081
:10037C000000000000000000000000000000000071
:10038C000000000000000000000000000000000061
:10039C000000000000000000000000000000000051
:1003AC000000000000000000000000000000000041
:1003BC000000000000000000000000000000000031
:1003CC000000000000000000000000000000000021
:1003DC000000000000000000000000000000000011
:1003EC000000000000000000000000000000000001
:1003FC0000000000000000000000000000000000F1
:10040C0000000000000000000000000000000000E0
:10041C0000000000000000000000000000000000D0
:10042C0000000000000000000000000000000000C0
:10043C0000000000000000000000000000000000B0
:10044C0000000000000000000000000000000000A0
:10045C000000000000000000000000000000000090
:10046C00FFFFFFFFFFFFFFFFFFFFFF00000000C0CB
:10047C00E0F0F8FCFCFEFEFEFFFFFFFFFFFFFFFFBE
:10048C00FEFEFE7C1C000000FFFFFFFFFFFFFFFFD6
:10049C00FFFFFF000000000080FFFFFFFFFFFFFFDA
:1004AC00FFFFFFFFFFFCC00000000000E0FCFFFFAF
:1004BC00FFFFFFFFFFFFFFFFFFFF0000000000003A
:1004CC0000000000000000E0FCFEFFFFFFFFFFFF4C
:1004DC00FFFFFFFFFFFEF8C000000000000000005F
:1004EC00FFFFFFFFFFFFFFFFFFFFFF0000007FFF8D
:1004FC00FFFFFFFFFFFFFFFFFFF9F8F0F0F0F1E166
:10050C00E3E3C38000000000FFFFFFFFFFFFFFFFDE
:10051C00FFFFFF00000000F0FFFFFFFFFFFFFFFFEA
:10052C00FFFFFFFFFFFFFFFCC000F0FFFFFFFFFF1F
:10053C00FFFFFFFFFFFFFFFFFFFFFFC000000000FA
:10054C0000000000E0F8FFFFFFFFFFFFFFFFFFFFD1
:10055C00FFFFFFFFFFFFFFFFFEF080000000000029
:10056C00FFFFFFFFFFFFFFFFFFFFFF00000000800A
:10057C00E1E3C787878F0F0F0F0F9FFFFFFFFFFF71
:10058C00FFFFFFFFFFFE0000FFFFFFFFFFFFFFFF6E
:10059C00FFFFFF000000FCFFFFFFFFFFFFFFFFFF5F
:1005AC0007010F7FFFFFFFFFFFFFFFFFFFFFFF3F75
:1005BC0007000FFFFFFFFFFFFFFFFFFFF000000032
:1005CC0000C0F0FEFFFFFFFFFFFFFFFF3F07010131
:1005DC0001033FFFFFFFFFFFFFFFFFFEF080000066
:1005EC00FFFFFFFFFFFFFFFFFFFFFF0000103E3F7D
:1005FC007F7F7F7FFFFFFFFFFFFFFFFFFF7F7F7F7F
:10060C003F3F1F0F07010000FFFFFFFFFFFFFFFF32
:10061C00FFFFFF0000FEFFFFFFFFFFFFFFFFFF7F5D
:10062C0000000000033FFFFFFFFFFFFF7F1F0300E1
:10063C000000007FFFFFFFFFFFFFFFFFFFFCC0F08C
:10064C00FEFFFFFFFFFFFFFFFFFF3F030000000067
:10065C00000000077FFFFFFFFFFFFFFFFFFFFCE035
:10066C00000000000000000000000000000000007E
:10067C00000000000000000000000000000000006E
:10068C00000000000000000000000000000000005E
:10069C00000000000000000000000000000000004E
:1006AC00000000000000000000000000000000003E
:1006BC00000000000000000000000000000000002E
:1006CC00000000000000000000000000000000001E
:1006DC00000000000000000000000000000000000E
:1006EC0000000000000000000000000000000000FE
:1006FC0000000000000000000000000000000000EE
:10070C0000000000000000000000000000000000DD
:10071C0000000000000000000000000000000000CD
:10072C0000000000000000000000000000000000BD
:10073C0000000000000000000000000000000000AD
:10074C00000000000000000000000000000000009D
:10075C00000000000000000000000000000000008D
:0B076C006D696B726F435F3132330028
:020000040030CA
:0D000100220F0EFF0181FF0FC00FE00F4026
:00000001FF
