:10000000A3EF03F00000000000EF00F0000000008C
:0A0010000000000000000000F3D71C
:0C001C00060E0D6E0D2EFED70000120027
:100028008F0E896E890E8A6E890E8B6EF90E8C6E14
:020038001200B4
:10003A000F0E896E080E8A6E080E8B6EFF0E8C6E7E
:02004A001200A2
:10004C00FF0E896E890E8A6E890E8B6EF90E8C6E80
:02005C00120090
:10005E00FF0E896E890E8A6E890E8B6EFF0E8C6E68
:02006E0012007E
:10007000010E896E010E8A6E010E8B6EFF0E8C6E64
:0200800012006C
:10008200FF0E896E810E8A6E810E8B6EFF0E8C6E54
:0200920012005A
:0A009400C3DF8188C1DF81981200EC
:10009E00080E896E040E8A6E020E8B6EFF0E8C6E2B
:0200AE0012003E
:1000B000810E896E890E8A6E890E8B6EFF0E8C6E94
:0200C00012002C
:1000C200F90E896E890E8A6E890E8B6E8F0E8C6E7A
:0200D20012001A
:1000D4008F0E896E890E8A6E890E8B6EFF0E8C6E62
:0200E400120008
:0A00E6009494CA840C0EBD1212009F
:0800F000BB6ABA98BA9A12002B
:1000F8000B6A0A6A096A00500402F4CF09F0F3CFC8
:1001080008F001500502F4CF0BF0F3CF0AF00050CD
:100118000502F3500926F4500A22E86A0B2201501E
:100128000402F3500926F4500A22E86A0B2208C098
:1001380000F009C001F00AC002F00BC003F0120081
:0A0148009492CA840C0EBA12120041
:0A015200896A8A6A8B6A8C6A1200BF
:08015C00BE6ABD98BD9A1200B5
:100164000134083609360450085E0550D8A0053C11
:10017400095E003601360F0E0C6E0134083609365E
:10018400045000A006D0085E0550D8A0053C095EC6
:1001940005D008260550D8B0053C0926003601369E
:1001A4000C2EEBD700B006D0045008260550D8B06A
:0801B400053C092600001200C1
:0E01BC008198818481962AC083FF66DF12003D
:1001CA0016D05ADF51D066DF4FD076DF4DD06BDFC5
:1001DA004BD02EDF49D023DF47D033DF45D043DF72
:1001EA0043D038DF41D071DF3FD0AEDF3DD0000EC3
:1001FA002B1802E1000E2A18E4E0000E2B1802E187
:10020A00010E2A18E0E0000E2B1802E1020E2A184D
:10021A00DCE0000E2B1802E1030E2A18D8E0000ECB
:10022A002B1802E1040E2A18D4E0000E2B1802E162
:10023A00050E2A18D0E0000E2B1802E1060E2A1825
:10024A00CCE0000E2B1802E1070E2A18C8E0000EB7
:10025A002B1802E1080E2A18C4E0000E2B1802E13E
:0A026A00090E2A18C0E0C1D71200E7
:100274007F0E2A14006E00C02AF081948196BF0E6E
:10028400001600C02AF0008C00C02AF000C083FFD2
:04029400FFDE120077
:100298007F0E2A14016E01C02AF001AC03D08180C0
:0A02A800819202D081908182120041
:1002B200020E0C6E490E0D6E0D2EFED70C2EFCD7C3
:0602C20000000000120024
:0E02C80081948196B80E2A10836EE0DE12003B
:1002D600FF0E806EFF0E926E816A936A826A946A3E
:1002E600CA80CA92630ECB6E36DFCA80CA92630E8C
:0A02F600CB6EFBDEF5DE25DF120003
:10030000CB50010F006E016A000E01222AC004F0DA
:10031000000E056EF1DE060E026E00C004F001C094
:1003200005F0025005E005320432059EFF0FFAD7B2
:10033000040E016E04C000F0015004E0003600908D
:10034000FF0FFBD7300E0014036E04C000F005C091
:1003500001F001320032019E01320032019E00C0E4
:0C036000BEFF0F0EBD160350BD121200B0
:10036C00CB50010F006E016A000E01222AC004F06E
:10037C00000E056EBBDE060E026E00C004F001C05E
:10038C0005F0025005E005320432059EFF0FFAD746
:10039C00040E016E04C000F0015004E00036009021
:1003AC00FF0FFBD7300E0014036E04C000F005C025
:1003BC0001F001320032019E01320032019E00C078
:0C03CC00BBFF0F0EBA160350BA1212004D
:0603D800836A956A120021
:1003DE00276A286A23508C12276A286A800E2818EA
:1003EE00006E800E2618005C02E12550275C05E2A7
:1003FE0000000000274A282AF1D723502410010EAE
:10040E00D8A4000E006E00508C1625C027F026C012
:10041E0028F0800E2818006E800E005C02E1C80ED7
:10042E00275C05E200000000274A282AF2D71200B6
:10043E00296A25C001F0010E006E015004E000365D
:10044E000090FF0FFBD700C028F023C0E9FF24C0A7
:10045E00EAFF0050EE14016E0152010ED8A4000EF8
:10046E00006E2750001A18E02650000804E21ADF2A
:10047E0019DF2606F9D723C0E9FF24C0EAFF28506A
:10048E00EE14016E0152010ED8A4000E006E27501C
:0E049E00001A02E0FF0E296E29C000F01200C5
:1004AC000450000A08E10550000A05E1FF0E006E39
:1004BC007F0E016E57D00D6A096A086A0150001050
:1004CC00D8B4000C015005180A6E0ABE0D1E0B6A3A
:1004DC0005AE05D0041E051E042AD8B4052A01AEAB
:1004EC0005D0001E011E002AD8B4012A01500510A7
:1004FC000A6E0ABE10D030DE0BB020D00DAE000C50
:10050C00001E011E002AD8B4012A081E091E082A42
:10051C00D8B4092A000C05AE0DD001BE07D001508D
:10052C00096E0050086E016A006AE8D7016A006A19
:10053C00002A000C011E001E0B2ADDD7082AD8B495
:10054C00092A0450085CD8A4D9D70550095CD8A452
:10055C00D5D7096A086A002AD8B4012A01AECED7C9
:06056C000000FF0C12006C
:10057200B1DE236AFF0E246E010E256E000E266E7A
:100582002A6ABDDE24C02AF0F0DE2350FF0A04E10D
:100592002550261001E008D02350000A04E125501E
:1005A200261001E101D009D025502610010ED8A451
:1005B200000E256E000E266E0CD02550261005E08A
:1005C200050E2326050E245E04D0050E235E050EBD
:1005D200242623C02AF093DE24C02AF0C6DE4E0E63
:1005E2000C6EEB0E0D6E0D2EFED70C2EFCD7CDD75A
:0205F2001200F5
:0A05F4009484CA94F00EBD161200A4
:1005FE000900F5CFE6FF0006FBE10106F9E1120066
:10060E00236A246A090E236E000E246E800E2418AF
:10061E00006E800E005C02E1000E235C18E323C026
:10062E002AF024C02BF0CADD0B0E0B6E260E0C6EBC
:10063E005D0E0D6E0D2EFED70C2EFCD70B2EFAD79F
:10064E0000000000010E235E000E245ADFD71200B8
:10065E00806A816A826A836A846A926A936A946AF9
:08066E00956A0F0E966E120052
:0A0676009482CA94F00EBA16120026
:10068000176A156A166A939A93989394939693901F
:100690009392819A956A8194819681908182818AD0
:1006A0003F0E836EF7DCC00E836EF4DC8180819296
:0E06B0003F0E836EEFDCC00E836EECDC12009A
:1006BE00276A286A296A275007083DE32A6AE5DD7A
:1006CE0027C02AF0FADD2A6ACEDD266A26503F08B8
:1006DE0011E328502324F66E29502420F76E000EC5
:1006EE002520F86E0900F5CF2AF061DD284A292A67
:1006FE00262AECD7400E2A6EC8DD27C02AF0DDDD93
:10070E00400E2A6EB0DD400E266E26507F0811E395
:10071E0028502324F66E29502420F76E000E252033
:10072E00F86E0900F5CF2AF042DD284A292A262A3A
:08073E00ECD7272AC0D71200F6
:10074600010E196E000E1A6E010E1B6E000E1C6E47
:10075600020E1D6E000E1E6E0A0E1F6E000E206E1D
:10076600216A226AC26AC16A9380968293849386BA
:100776001890189218941896810E236E0F0E246EF8
:10078600256A010E266E010E276E56DE0052D8A48B
:10079600188018A021D0810E236E0F0E246E256AB4
:1007A600010E266E276A48DE005216E01890040EE7
:1007B600216E000E226E1FC004F020C005F0040E4C
:1007C600006E000E016E6FDE08C000F009C001F079
:1007D60000C021F001C022F0810E236E0F0E246EA0
:1007E600010E256E010E266E010E276E25DE0052C5
:1007F600D8A4188218A222D0810E236E0F0E246E62
:10080600010E256E010E266E276A16DE005216E0D0
:100816001892060E216E000E226E1FC004F020C034
:1008260005F0060E006E000E016E3DDE08C000F0FB
:1008360009C001F000C021F001C022F0810E236E34
:100846000F0E246E020E256E010E266E010E276E09
:10085600F3DD0052D8A4188418A422D0810E236E8A
:100866000F0E246E020E256E010E266E276AE4DD3B
:10087600005216E01894080E216E000E226E1FC05C
:1008860004F020C005F0080E006E000E016E0BDEAF
:1008960008C000F009C001F000C021F001C022F03C
:1008A600810E236E0F0E246E030E256E010E266E2C
:1008B600010E276EC1DD0052D8A4188618A622D0D4
:1008C600810E236E0F0E246E030E256E010E266E0C
:1008D600276AB2DD005216E01896010E216E000E50
:1008E600226E1FC004F020C005F0010E006E000E3F
:1008F600016ED9DD08C000F009C001F000C021F08A
:1009060001C022F0000E221802E1010E211822E198
:10091600010E196E000E1A6E010E1B6E000E1C6E75
:10092600020E1D6E000E1E6ED3DC53DD214A222AF6
:100936001FC004F020C005F021C000F022C001F065
:10094600B2DD08C000F009C001F000C021F001C00E
:1009560022F02FD1000E221802E1020E2118D8A48F
:100966009DD02A6A00DD196A1A6AC80E006E000E4A
:10097600016E1DC004F01EC005F07CEC00F0800E78
:100986001A18026E800E0118025C02E10050195C12
:1009960021E21DC004F01EC005F019C000F01AC007
:1009A60001F081DD00C02AF0A8DC1BC023F01CC0CA
:1009B60024F01DC004F01EC005F019C000F01AC0D6
:1009C60001F071DD00C025F001C026F005DD194AF1
:1009D6001A2ACBD72A6A91DCC80E006E000E016E69
:1009E6001DC004F01EC005F07CEC00F000C019F03C
:1009F60001C01AF0800E006E800E1A18005C02E12B
:100A06001950000823E21DC004F01EC005F019C0ED
:100A160000F01AC001F047DD00C02AF0A4DC1BC0BC
:100A260023F01CC024F01DC004F01EC005F019C040
:100A360000F01AC001F037DD00C025F001C026F035
:100A4600CBDC010E195E000E1A5AD4D71BC000F07B
:100A56001CC001F0003600900136010E0024026E23
:100A6600000E0120036E02C01BF003C01CF0800EB6
:100A7600006E800E0318005C02E10250FF0805E2DA
:100A8600010E006E000E016E04D01BC000F01CC0EB
:100A960001F000C01BF001C01CF08BD0000E221824
:100AA60002E1030E211816E1A2DDE2DD214A222A27
:100AB6001FC004F020C005F021C000F022C001F0E4
:100AC600F2DC08C000F009C001F000C021F001C04E
:100AD60022F06FD0000E221802E1040E211815E153
:100AE600CCDD214A222A1FC004F020C005F021C017
:100AF60000F022C001F0D7DC08C000F009C001F008
:100B060000C021F001C022F054D0000E221802E1EC
:100B1600050E211808E1BC0E236E0B0E246E000E86
:100B2600256ECADD46D0000E221802E1060E2118F7
:100B360015E192DD214A222A1FC004F020C005F0EB
:100B460021C000F022C001F0AEDC08C000F009C0F0
:100B560001F000C021F001C022F02BD0000E2218B7
:100B660002E1070E211802E14FDD23D0000E221804
:100B760002E1080E211816E16BEC01F0214A222A47
:100B86001FC004F020C005F021C000F022C001F013
:100B96008ADC08C000F009C001F000C021F001C0E5
:100BA60022F007D0000E221802E1090E211801E1F9
:060BB600DDDCE2D5FFD7F3
:100BBC000000000000000000000000000000000029
:100BCC000000000000000000000000000000000019
:100BDC000000000000000000000000000000000009
:100BEC0000000000000000000000000000000000F9
:100BFC0000000000000000000000000000000000E9
:100C0C0000000000000000000000000000000000D8
:100C1C0000000000000000000000000000000000C8
:100C2C0000000000000000000000000000000000B8
:100C3C0000000000000000000000000000000000A8
:100C4C000000000000000000000000000000000098
:100C5C000000000000000000000000000000000088
:100C6C000000000000000000000000000000000078
:100C7C000000000000000000000000000000000068
:100C8C000000000000000000000000000000000058
:100C9C000000000000000000000000000000000048
:100CAC000000000000000000000000000000000038
:100CBC00FFFFFFFFFFFFFFFFFFFFFF00000000C073
:100CCC00E0F0F8FCFCFEFEFEFFFFFFFFFFFFFFFF66
:100CDC00FEFEFE7C1C000000FFFFFFFFFFFFFFFF7E
:100CEC00FFFFFF000000000080FFFFFFFFFFFFFF82
:100CFC00FFFFFFFFFFFCC00000000000E0FCFFFF57
:100D0C00FFFFFFFFFFFFFFFFFFFF000000000000E1
:100D1C0000000000000000E0FCFEFFFFFFFFFFFFF3
:100D2C00FFFFFFFFFFFEF8C0000000000000000006
:100D3C00FFFFFFFFFFFFFFFFFFFFFF0000007FFF34
:100D4C00FFFFFFFFFFFFFFFFFFF9F8F0F0F0F1E10D
:100D5C00E3E3C38000000000FFFFFFFFFFFFFFFF86
:100D6C00FFFFFF00000000F0FFFFFFFFFFFFFFFF92
:100D7C00FFFFFFFFFFFFFFFCC000F0FFFFFFFFFFC7
:100D8C00FFFFFFFFFFFFFFFFFFFFFFC000000000A2
:100D9C0000000000E0F8FFFFFFFFFFFFFFFFFFFF79
:100DAC00FFFFFFFFFFFFFFFFFEF0800000000000D1
:100DBC00FFFFFFFFFFFFFFFFFFFFFF0000000080B2
:100DCC00E1E3C787878F0F0F0F0F9FFFFFFFFFFF19
:100DDC00FFFFFFFFFFFE0000FFFFFFFFFFFFFFFF16
:100DEC00FFFFFF000000FCFFFFFFFFFFFFFFFFFF07
:100DFC0007010F7FFFFFFFFFFFFFFFFFFFFFFF3F1D
:100E0C0007000FFFFFFFFFFFFFFFFFFFF0000000D9
:100E1C0000C0F0FEFFFFFFFFFFFFFFFF3F070101D8
:100E2C0001033FFFFFFFFFFFFFFFFFFEF08000000D
:100E3C00FFFFFFFFFFFFFFFFFFFFFF0000103E3F24
:100E4C007F7F7F7FFFFFFFFFFFFFFFFFFF7F7F7F26
:100E5C003F3F1F0F07010000FFFFFFFFFFFFFFFFDA
:100E6C00FFFFFF0000FEFFFFFFFFFFFFFFFFFF7F05
:100E7C0000000000033FFFFFFFFFFFFF7F1F030089
:100E8C000000007FFFFFFFFFFFFFFFFFFFFCC0F034
:100E9C00FEFFFFFFFFFFFFFFFFFF3F03000000000F
:100EAC00000000077FFFFFFFFFFFFFFFFFFFFCE0DD
:100EBC000000000000000000000000000000000026
:100ECC000000000000000000000000000000000016
:100EDC000000000000000000000000000000000006
:100EEC0000000000000000000000000000000000F6
:100EFC0000000000000000000000000000000000E6
:100F0C0000000000000000000000000000000000D5
:100F1C0000000000000000000000000000000000C5
:100F2C0000000000000000000000000000000000B5
:100F3C0000000000000000000000000000000000A5
:100F4C000000000000000000000000000000000095
:100F5C000000000000000000000000000000000085
:100F6C000000000000000000000000000000000075
:100F7C000000000000000000000000000000000065
:100F8C000000000000000000000000000000000055
:100F9C000000000000000000000000000000000045
:100FAC000000000000000000000000000000000035
:020000040030CA
:0D000100220F0EFF0181FF0FC00FE00F4026
:00000001FF
