:10000000FCEF00F00000000000EF00F00000000036
:0A0010000000000000000000F3D71C
:10001C00F90E896E890E8A6E890E8B6E8F0E8C6E20
:02002C001200C0
:10002E00FF0E896E890E8A6E890E8B6EF90E8C6E9E
:02003E001200AE
:10004000810E896E890E8A6E890E8B6EFF0E8C6E04
:0200500012009C
:100052000F0E896E080E8A6E080E8B6EFF0E8C6E66
:0200620012008A
:100064008F0E896E890E8A6E890E8B6EFF0E8C6ED2
:02007400120078
:0A007600896A8A6A8B6A8C6A12009C
:10008000010E896E010E8A6E010E8B6EFF0E8C6E54
:0200900012005C
:10009200FF0E896E890E8A6E890E8B6EFF0E8C6E34
:0200A20012004A
:1000A400FF0E896E810E8A6E810E8B6EFF0E8C6E32
:0200B400120038
:1000B600080E896E040E8A6E020E8B6EFF0E8C6E13
:0200C600120026
:1000C8008F0E896E890E8A6E890E8B6EF90E8C6E74
:0200D800120014
:1000DA0016D0E3DF51D0EADF4FD09BDF4DD0ABDF44
:1000EA004BD0B2DF49D0EBDF47D09CDF45D0C3DF2E
:1000FA0043D0CADF41D0B1DF3FD0B8DF3DD0000ED8
:10010A00181802E1000E1718E4E0000E181802E1B0
:10011A00010E1718E0E0000E181802E1020E171877
:10012A00DCE0000E181802E1030E1718D8E0000EE2
:10013A00181802E1040E1718D4E0000E181802E18C
:10014A00050E1718D0E0000E181802E1060E17184F
:10015A00CCE0000E181802E1070E1718C8E0000ECE
:10016A00181802E1080E1718C4E0000E181802E168
:0A017A00090E1718C0E0C1D71200EB
:10018400806A816A826A836A846A926A936A946AD8
:04019400956A120056
:10019800156A166A090E156E000E166E800E161870
:1001A800006E800E005C02E1000E155C18E315C0BD
:1001B80017F016C018F08DDF0B0E0B6E260E0C6EA6
:1001C8005D0E0D6E0D2EFED70C2EFCD70B2EFAD71A
:1001D80000000000010E155E000E165ADFD712004F
:1001E8000900F5CFE6FF0006FBE10106F9E1120080
:0C01F800C5DF730ED36ECCDFFED7FFD73F
:020000040030CA
:0D000100220F0EFF0181FF0FC00FE00F4026
:00000001FF
